:03000000020800F3
:0C080000787FE4F6D8FD758126020847D9
:100944001408FFFFFFFF8388C88288C7C0AF8600F2
:060954000000000000009D
:10090A00E4F526F525F524F523E47FA07E0FFDFC0A
:10091A00AB26AA25A924A823C312095B501BE4FA13
:10092A00F9F8E5262401F526EA3525F525E93524E1
:09093A00F524E83523F52380D0F3
:010943002291
:10088C0090E8037480F0E4F51CF51DF51E751F004F
:10089C0075200D12090AAF1C051C74082FF8E6FF11
:1008AC00E4FDFCEF752100F522530780EF90E80181
:1008BC007003F080037401F090E8027401F0E4F02E
:1008CC00AF22EF25E0FF0DBD00010CED64084C706C
:1008DC00D2E52015207002151FD3E5209400E51FEA
:1008EC006480948050AD12090A051EE51E70020545
:0E08FC001DC39401E51D6480948040918088A6
:10080C0002088CE493A3F8E493A34003F68001F26E
:10081C0008DFF48029E493A3F85407240CC8C333ED
:10082C00C4540F4420C8834004F456800146F6DFBC
:10083C00E4800B0102040810204080900944E47EFF
:10084C00019360BCA3FF543F30E509541FFEE493B1
:10085C00A360010ECF54C025E060A840B8E493A378
:10086C00FAE493A3F8E493A3C8C582C8CAC583CAA3
:10087C00F0A3C8C582C8CAC583CADFE9DEE780BE5B
:01095A00009C
:10095B00EB9FF5F0EA9E42F0E99D42F0EC6480C813
:06096B0064809845F022B3
:00000001FF
